:020000040800F2
:100000000000022029230008A9220008AF220008CE
:10001000B5220008BB220008C12200080000000031
:10002000000000000000000000000000C7220008DF
:10003000D522000800000000E3220008F122000899
:100040007923000879230008792300087923000820
:100050007923000879230008792300087923000810
:100060007923000879230008792300087923000800
:1000700079230008792300087923000879230008F0
:1000800079230008792300087923000879230008E0
:1000900079230008792300087923000879230008D0
:1000A00079230008792300087923000879230008C0
:1000B00079230008792300087923000879230008B0
:1000C00079230008792300087923000879230008A0
:1000D0007923000879230008792300087923000890
:1000E0007923000879230008792300087923000880
:1000F0007923000879230008792300087923000870
:10010000792300087923000879230008792300085F
:10011000792300087923000879230008792300084F
:10012000792300087923000879230008792300083F
:10013000792300087923000879230008792300082F
:10014000792300087923000879230008792300081F
:10015000792300087923000879230008792300080F
:1001600079230008792300087923000879230008FF
:100170007923000879230008792300080000000093
:0801800079230008792300082F
:1001880010B5054C237833B9044B13B10448AFF3C9
:1001980000800123237010BD0C0000200000000027
:1001A800D423000808B5034B1BB103490348AFF338
:1001B800008008BD0000000010000020D4230008C3
:1001C80053B94AB9002908BF00281CBF4FF0FF31B6
:1001D8004FF0FF3000F07AB9ADF1080C6DE904CEAC
:1001E80000F006F8DDF804E0DDE9022304B070470A
:1001F8002DE9F0478C460D460446089E002B51D148
:100208008A4217466DD9B2FA82FEBEF1000F0BD0B2
:10021800CEF1200C01FA0EF520FA0CFC02FA0EF7CA
:100228004CEA050C00FA0EF44FEA174A250CBCFB01
:10023800FAF81FFA87F90AFB18CC45EA0C4508FBBF
:1002480009F3AB420AD9ED1908F1FF3280F0238196
:10025800AB4240F22081A8F102083D44ED1AA4B255
:10026800B5FBFAF00AFB105544EA054400FB09F90E
:10027800A14509D9E41900F1FF3380F00A81A145AD
:1002880040F2078102383C44A4EB090440EA0840E4
:100298000021002E61D024FA0EF40023346073602C
:1002A800BDE8F0878B4207D9002E54D0002186E89C
:1002B80021000846BDE8F087B3FA83F1002940F031
:1002C8008E80AB4202D3824200F2FA80841A65EB38
:1002D80003050120AC46002E3FD086E81010BDE88B
:1002E800F08712B90127B7FBF2F7B7FA87FEBEF11C
:1002F800000F34D1EB1B3A0C1FFA87FC0121B3FB2A
:10030800F2F8250C02FB183345EA03450CFB08F309
:10031800AB4207D9ED1908F1FF3002D2AB4200F227
:10032800D1808046ED1AA3B2B5FBF2F002FB10555E
:1003380043EA05440CFB00FCA44507D9E41900F185
:10034800FF3302D2A44500F2B8801846A4EB0C048F
:1003580040EA08409DE731463046BDE8F087CEF1D7
:10036800200405FA0EF307FA0EF720FA04F83A0CFF
:1003780025FA04F448EA0308B4FBF2F14FEA1845F9
:1003880002FB11441FFA87FC45EA044501FB0CF304
:10039800AB4200FA0EF409D9ED1901F1FF3080F0F3
:1003A8008A80AB4240F2878002393D44EB1A1FFA3B
:1003B80088F5B3FBF2F002FB103345EA034500FB76
:1003C8000CF3AB4207D9ED1900F1FF386FD2AB42FD
:1003D8006DD902383D44EB1A40EA01418FE7C1F17B
:1003E800200722FA07F88B4005FA01F448EA0303CC
:1003F80020FA07FE4FEA134CFD404EEA040EB5FB07
:10040800FCF94FEA1E440CFB19551FFA83F844EA1D
:10041800054509FB08F4AC4202FA01F200FA01FAB8
:1004280008D9ED1809F1FF3043D2AC4241D9A9F1FE
:1004380002091D442D1B1FFA8EFEB5FBFCF00CFBB8
:1004480010554EEA054400FB08F8A04507D9E41802
:1004580000F1FF3529D2A04527D902381C4440EACB
:100468000940A4EB0804A0FB02894C45C6464D464A
:1004780015D312D056B1BAEB0E0364EB050404FA97
:1004880007F7CB401F43CC40376074600021BDE8BC
:10049800F0871846F8E69046E0E6C245EAD2B8EB9F
:1004A800020E69EB03050138E4E72846D7E7404622
:1004B80091E78146BEE7014678E702383C4445E7C4
:1004C800084608E7A8F102083D442BE7704700BF3B
:1004D80080B500AF0E4A0E4B1B6843F400731360DF
:1004E8000B4A0B4B1B6843F480631360084A084BA4
:1004F8001B6843F480731360032000F00BF900209D
:1005080000F008F801F000FE0023184680BD00BF87
:10051800003C024080B582B000AF7860124B1A6888
:10052800124B1B7819464FF47A73B3FBF1F3B2FB05
:10053800F3F3184600F015F90346002B01D0012308
:100548000EE07B680F2B0AD8002279684FF0FF3045
:1005580000F0EBF8064A7B681360002300E00123F3
:1005680018460837BD4680BD08000020040000205A
:100578000000002080B400AF064B1B781A46064BDB
:100588001B681344044A136000BFBD465DF8047B32
:10059800704700BF040000202800002080B400AF8E
:1005A800034B1B681846BD465DF8047B704700BFC7
:1005B8002800002080B485B000AF78607B6803F025
:1005C8000703FB600C4BDB68BB60BA684FF6FF03A0
:1005D8001340BB60FB681A02BB68134343F0BF6358
:1005E80043F40033BB60044ABB68D36000BF1437D0
:1005F800BD465DF8047B704700ED00E080B400AFB5
:10060800044BDB681B0A03F007031846BD465DF878
:10061800047B704700ED00E080B483B000AF034670
:100628003960FB7197F90730002B0ADB0D4997F900
:1006380007303A68D2B21201D2B20B4483F80023D1
:100648000AE00949FB7903F00F03043B3A68D2B288
:100658001201D2B20B441A7600BF0C37BD465DF8C2
:10066800047B704700E100E000ED00E080B489B051
:1006780000AFF860B9607A60FB6803F00703FB61BC
:10068800FB69C3F10703042B28BF0423BB61FB6983
:100698000433062B02D9FB69033B00E000237B618E
:1006A8000122BB6902FA03F35A1EBB681A407B6930
:1006B8009A4001217B6901FA03F3591E7B680B40BC
:1006C800134318462437BD465DF8047B7047000085
:1006D80080B582B000AF78607B68013BB3F1807F62
:1006E80001D301230FE00A4A7B68013B53600F21C5
:1006F8004FF0FF30FFF790FF054B00229A60044B44
:1007080007221A60002318460837BD4680BD00BF7F
:1007180010E000E080B582B000AF78607868FFF73D
:1007280049FF00BF0837BD4680BD80B586B000AF21
:100738000346B9607A60FB7300237B61FFF75EFFB5
:1007480078617A68B9687869FFF790FF024697F987
:100758000F3011461846FFF75FFF00BF1837BD4638
:1007680080BD80B582B000AF78607868FFF7B0FFD1
:10077800034618460837BD4680BD000080B489B0DE
:1007880000AF7860396000237B6100233B61002360
:10079800BB610023FB616BE10122FB6902FA03F3F1
:1007A8007B613B681A687B6913403B613A697B69E6
:1007B8009A4240F05A813B685B68012B0BD03B683A
:1007C8005B68022B07D03B685B68112B03D03B6842
:1007D8005B68122B30D17B689B68BB61FB695B004F
:1007E800032202FA03F3DB43BA691340BB613B6897
:1007F800DA68FB695B0002FA03F3BA691343BB6169
:100808007B68BA699A607B685B68BB610122FB6997
:1008180002FA03F3DB43BA691340BB613B685B68C8
:100828001B0903F00102FB6902FA03F3BA691343D7
:10083800BB617B68BA695A607B68DB68BB61FB692E
:100848005B00032202FA03F3DB43BA691340BB617E
:100858003B689A68FB695B0002FA03F3BA691343C1
:10086800BB617B68BA69DA603B685B68022B03D0BE
:100878003B685B68122B23D1FB69DA087B68083276
:1008880053F82230BB61FB6903F007039B000F227A
:1008980002FA03F3DB43BA691340BB613B681A6988
:1008A800FB6903F007039B0002FA03F3BA691343D9
:1008B800BB61FB69DA087B680832B96943F8221022
:1008C8007B681B68BB61FB695B00032202FA03F3C8
:1008D800DB43BA691340BB613B685B6803F0030202
:1008E800FB695B0002FA03F3BA691343BB617B68D7
:1008F800BA691A603B685B6803F08053002B00F00C
:10090800B4800023FB605F4A5E4B5B6C43F480431A
:1009180053645C4B5B6C03F48043FB60FB685A4A8E
:10092800FB699B08023352F82330BB61FB6903F073
:1009380003039B000F2202FA03F3DB43BA69134057
:10094800BB617B68514A93422BD07B68504A9342E3
:1009580025D07B684F4A93421FD07B684E4A93420A
:1009680019D07B684D4A934213D07B684C4A934216
:100978000DD07B684B4A934207D07B684A4A934222
:1009880001D107230EE008230CE006230AE0052323
:1009980008E0042306E0032304E0022302E0012325
:1009A80000E00023FA6902F0030292009340BA695A
:1009B8001343BB613449FB699B080233BA6941F8A8
:1009C80023203A4B1B68BB613B69DB43BA69134080
:1009D800BB613B685B6803F48033002B03D0BA69C2
:1009E8003B691343BB61314ABB6913602F4B5B689A
:1009F800BB613B69DB43BA691340BB613B685B6819
:100A080003F40033002B03D0BA693B691343BB617D
:100A1800264ABB695360254B9B68BB613B69DB4336
:100A2800BA691340BB613B685B6803F48013002B11
:100A380003D0BA693B691343BB611C4ABB69936025
:100A48001A4BDB68BB613B69DB43BA691340BB6186
:100A58003B685B6803F40013002B03D0BA693B6959
:100A68001343BB61114ABB69D360FB690133FB6166
:100A7800FB690F2B7FF690AE00BF2437BD465DF8AB
:100A8800047B7047003802400038014000000240F3
:100A98000004024000080240000C0240001002401E
:100AA8000014024000180240001C0240003C0140B3
:100AB80080B483B000AF78600B467B8013467B70B0
:100AC8007B78002B03D07A887B689A6103E07B8867
:100AD8001A047B689A6100BF0C37BD465DF8047B39
:100AE8007047000080B586B000AF78607B68002B47
:100AF80001D101235BE27B681B6803F00103002B33
:100B080075D0A34B9B6803F00C03042B0CD0A04BAF
:100B18009B6803F00C03082B12D19D4B5B6803F410
:100B28008003B3F5800F0BD1994B1B6803F4003396
:100B3800002B5BD07B685B68002B57D1012336E222
:100B48007B685B68B3F5803F06D1914A904B1B6880
:100B580043F4803313601DE07B685B68B3F5A02F16
:100B68000CD18B4A8A4B1B6843F480231360884A54
:100B7800874B1B6843F4803313600BE0844A844B33
:100B88001B6823F480331360814A814B1B6823F46C
:100B9800802313607B685B68002B13D0FFF7FEFC93
:100BA800386108E0FFF7FAFC02463B69D31A642B68
:100BB80001D90323FBE1764B1B6803F40033002BB8
:100BC800F0D014E0FFF7EAFC386108E0FFF7E6FC34
:100BD80002463B69D31A642B01D90323E7E16C4B26
:100BE8001B6803F40033002BF0D100E000BF7B68E2
:100BF8001B6803F00203002B63D0654B9B6803F06E
:100C08000C03002B0BD0624B9B6803F00C03082BE2
:100C18001CD15F4B5B6803F48003002B16D15C4B3F
:100C28001B6803F00203002B05D07B68DB68012BEF
:100C380001D00123BBE15649554B1B6823F0F8024C
:100C48007B681B69DB0013430B603AE07B68DB6859
:100C5800002B20D04F4B01221A60FFF79FFC386110
:100C680008E0FFF79BFC02463B69D31A022B01D927
:100C780003239CE1464B1B6803F00203002BF0D0D2
:100C88004349434B1B6823F0F8027B681B69DB0070
:100C980013430B6015E03F4B00221A60FFF77EFC00
:100CA800386108E0FFF77AFC02463B69D31A022B49
:100CB80001D903237BE1364B1B6803F00203002BA9
:100CC800F0D17B681B6803F00803002B30D07B68E9
:100CD8005B69002B16D0304B01221A60FFF75EFCCF
:100CE800386108E0FFF75AFC02463B69D31A022B29
:100CF80001D903235BE1264B5B6F03F00203002B52
:100D0800F0D015E0244B00221A60FFF747FC386149
:100D180008E0FFF743FC02463B69D31A022B01D9CE
:100D2800032344E11A4B5B6F03F00203002BF0D15D
:100D38007B681B6803F00403002B00F0A0800023ED
:100D4800FB75134B1B6C03F08053002B0FD1002352
:100D5800BB600F4A0E4B1B6C43F0805313640C4B63
:100D68001B6C03F08053BB60BB680123FB750B4B06
:100D78001B6803F48073002B21D1084A074B1B68BA
:100D880043F480731360FFF709FC386111E000BF7A
:100D98000038024000004742800E47420070004081
:100DA800FFF7FCFB02463B69D31A022B01D9032348
:100DB800FDE0814B1B6803F48073002BF0D07B6847
:100DC8009B68012B06D17D4A7C4B1B6F43F00103C6
:100DD80013671CE07B689B68052B0CD1774A774B1F
:100DE8001B6F43F004031367744A744B1B6F43F083
:100DF800010313670BE0714A704B1B6F23F001036B
:100E080013676E4A6D4B1B6F23F0040313677B68EF
:100E18009B68002B15D0FFF7C1FB38610AE0FFF78C
:100E2800BDFB02463B69D31A41F28832934201D98D
:100E38000323BCE0614B1B6F03F00203002BEED0D1
:100E480014E0FFF7ABFB38610AE0FFF7A7FB0246A7
:100E58003B69D31A41F28832934201D90323A6E0B1
:100E6800564B1B6F03F00203002BEED1FB7D012BC9
:100E780005D1524A514B1B6C23F0805313647B6895
:100E88009B69002B00F092804C4B9B6803F00C038D
:100E9800082B5CD07B689B69022B41D1484B002210
:100EA8001A60FFF77BFB386108E0FFF777FB024623
:100EB8003B69D31A022B01D9032378E03F4B1B6807
:100EC80003F00073002BF0D13C497B68DA697B683A
:100ED8001B6A1A437B685B6A9B011A437B689B6A9F
:100EE8005B08013B1B041A437B68DB6A1B06134340
:100EF8004B60334B01221A60FFF750FB386108E062
:100F0800FFF74CFB02463B69D31A022B01D9032396
:100F18004DE02A4B1B6803F00073002BF0D045E02E
:100F2800274B00221A60FFF739FB386108E0FFF70A
:100F380035FB02463B69D31A022B01D9032336E05D
:100F48001E4B1B6803F00073002BF0D12EE07B686A
:100F58009B69012B01D1012329E0184B5B68FB60D9
:100F6800FB6803F480027B68DB699A421CD1FB684A
:100F780003F03F027B681B6A9A4215D1FA6847F66C
:100F8800C07313407A68526A93420DD1FB6803F428
:100F980040327B689B6A9A4206D1FB6803F0706214
:100FA8007B68DB6A9A4201D0012300E000231846DF
:100FB8001837BD4680BD00BF0070004000380240B1
:100FC8006000474280B584B000AF786039607B68C4
:100FD800002B01D10123CCE0684B1B6803F00F0202
:100FE8003B689A420CD2654B3A68D2B21A70634B8E
:100FF8001B6803F00F023B689A4201D00123B8E056
:101008007B681B6803F00203002B20D07B681B68F9
:1010180003F00403002B05D0594A594B9B6843F44D
:10102800E05393607B681B6803F00803002B05D02E
:10103800534A534B9B6843F4604393605049504B69
:101048009B6823F0F0027B689B6813438B607B6886
:101058001B6803F00103002B44D07B685B68012BFD
:1010680007D1474B1B6803F40033002B19D1012328
:101078007FE07B685B68022B03D07B685B68032B8F
:1010880007D13F4B1B6803F00073002B09D10123E4
:101098006FE03B4B1B6803F00203002B01D10123D7
:1010A80067E03749364B9B6823F003027B685B682F
:1010B80013438B60FFF772FAF8600AE0FFF76EFAE5
:1010C8000246FB68D31A41F28832934201D90323BE
:1010D8004FE02B4B9B6803F00C027B685B689B001E
:1010E8009A42EBD1254B1B6803F00F023B689A42EA
:1010F8000CD9224B3A68D2B21A70204B1B6803F005
:101108000F023B689A4201D0012332E07B681B68DA
:1011180003F00403002B08D01949194B9B6823F4EA
:10112800E0527B68DB6813438B607B681B6803F0C5
:101138000803002B09D01249114B9B6823F4604225
:101148007B681B69DB0013438B6000F021F80146C4
:101158000B4B9B681B0903F00F030A4AD35C21FA67
:1011680003F3094A1360094B1B681846FFF7D2F9C5
:10117800002318461037BD4680BD00BF003C024022
:1011880000380240EC23000808000020000000207E
:101198002DE9F04F87B000AF0022FA6000227A6193
:1011A8000022BA6000223A61514A926802F00C02A9
:1011B800042A07D0082A08D0002A40F090804D4B16
:1011C8003B618FE04C4B3B618CE0494A526802F02E
:1011D8003F02FA60464A526802F48002002A23D08D
:1011E800434B5B689B094FF0000440F2FF114FF03E
:1011F800000203EA010304EA02043F4A02FB04F185
:10120800002202FB03F20A443B49A3FB01015318E5
:101218001946FB684FF000041A462346FEF7D0FF34
:1012280003460C467B614CE0314A526892091146EC
:101238004FF0000240F2FF154FF0000605EA0105E5
:1012480006EA0206294632464FEA421B4BEAD16BB0
:101258004FEA411A51465A46AA46B34655465E4693
:101268004D1B62EB060629463246940144EA916416
:101278008B015B1A64EB02044FEAC40949EA53790B
:101288004FEAC30843464C4655465E46ED1846EBC2
:1012980004062B463446A2027A607A6842EA9352E0
:1012A8007A609B023B6097E8180018462146FB6865
:1012B8004FF000041A462346FEF782FF03460C4609
:1012C8007B610B4B5B681B0C03F0030301335B0072
:1012D800BB607A69BB68B2FBF3F33B6102E0054B84
:1012E8003B6100BF3B6918461C37BD46BDE8F08F1F
:1012F800003802400024F40040787D0180B582B0B7
:1013080000AF78607B68002B01D1012355E07B6832
:1013180000229A627B6893F85130DBB2002B06D129
:101328007B68002283F85020786800F015FF7B68FE
:10133800022283F851207B681B687A681268126859
:1013480022F040021A607B681B687A6851687A68E4
:10135800926811437A68D26811437A681269114316
:101368007A68526911437A68926902F400721143EB
:101378007A68D26911437A68126A11437A68926A64
:101388000A431A607B681B687A689269120C02F03B
:1013980004017A68526A0A435A607B681B687A6853
:1013A8001268D26922F40062DA617B6800225A6509
:1013B8007B68012283F85120002318460837BD4670
:1013C80080BD80B582B000AF78607B68002B01D10A
:1013D80001231DE07B6893F83D30DBB2002B06D17A
:1013E8007B68002283F83C20786800F0FDFE7B686B
:1013F800022283F83D207B681A687B68043319460B
:10140800104600F0BDF97B68012283F83D200023D7
:1014180018460837BD4680BD80B582B000AF7860F9
:101428007B68002B01D101231DE07B6893F83D30D8
:10143800DBB2002B06D17B68002283F83C20786859
:1014480000F015F87B68022283F83D207B681A6853
:101458007B6804331946104600F092F97B68012234
:1014680083F83D20002318460837BD4680BD80B468
:1014780083B000AF786000BF0C37BD465DF8047BD1
:101488007047000080B584B000AFF860B9607A603A
:10149800FB6893F83C30012B01D10223B4E0FB68D0
:1014A800012283F83C20FB68022283F83D207B68F8
:1014B8000C2B00F29F8001A252F823F0F9140008C7
:1014C800FD150008FD150008FD1500083915000870
:1014D800FD150008FD150008FD1500087B1500081E
:1014E800FD150008FD150008FD150008BB150008CE
:1014F800FB681B68B968184600F0E2F9FB681B68CE
:10150800FA681268926942F008029A61FB681B68DF
:10151800FA681268926922F004029A61FB681B68F3
:10152800FA6812689169BA6812690A439A6162E0B6
:10153800FB681B68B968184600F032FAFB681B683C
:10154800FA681268926942F400629A61FB681B6843
:10155800FA681268926922F480629A61FB681B68D3
:10156800FA6812689169BA68126912020A439A61A4
:1015780041E0FB681B68B968184600F087FAFB6809
:101588001B68FA681268D26942F00802DA61FB68DF
:101598001B68FA681268D26922F00402DA61FB68F3
:1015A8001B68FA681268D169BA6812690A43DA6175
:1015B80021E0FB681B68B968184600F0DBFAFB6895
:1015C8001B68FA681268D26942F40062DA61FB6843
:1015D8001B68FA681268D26922F48062DA61FB68D3
:1015E8001B68FA681268D169BA68126912020A435C
:1015F800DA6100E000BFFB68012283F83D20FB6848
:10160800002283F83C20002318461037BD4680BDD1
:1016180080B584B000AF786039607B6893F83C305F
:10162800012B01D10223A6E07B68012283F83C202C
:101638007B68022283F83D207B681B689B68FB60FF
:10164800FB6823F07703FB60FB6823F47F43FB60B0
:101658007B681B68FA689A603B681B68402B67D0F8
:10166800402B0BD8102B73D0102B02D8002B6FD027
:1016780078E0202B6CD0302B6AD073E0702B0DD023
:10168800702B04D8502B33D0602B41D06AE0B3F5CF
:10169800805F66D0B3F5005F17D063E07B68186899
:1016A8003B6899683B685A683B68DB6800F032FB26
:1016B8007B681B689B68FB60FB6843F07703FB60F3
:1016C8007B681B68FA689A604CE07B6818683B681E
:1016D80099683B685A683B68DB6800F01BFB7B68CD
:1016E8001B687A681268926842F480429A6039E00E
:1016F8007B6818683B6859683B68DB681A4600F0E5
:101708008FFA7B681B685021184600F0E8FA29E038
:101718007B6818683B6859683B68DB681A4600F0C4
:10172800AEFA7B681B686021184600F0D8FA19E009
:101738007B6818683B6859683B68DB681A4600F0A4
:101748006FFA7B681B684021184600F0C8FA09E068
:101758007B681A683B681B681946104600F0BFFA98
:1017680000E000BF7B68012283F83D207B680022EF
:1017780083F83C20002318461037BD4680BD000082
:1017880080B485B000AF786039607B681B68FB6007
:101798007B68404A934213D07B68B3F1804F0FD0E7
:1017A8007B683D4A93420BD07B683C4A934207D002
:1017B8007B683B4A934203D07B683A4A934208D1FC
:1017C800FB6823F07003FB603B685B68FA681343AF
:1017D800FB607B682F4A93422BD07B68B3F1804F24
:1017E80027D07B682C4A934223D07B682B4A9342AC
:1017F8001FD07B682A4A93421BD07B68294A9342B0
:1018080017D07B68284A934213D07B68274A9342B3
:101818000FD07B68264A93420BD07B68254A9342B7
:1018280007D07B68244A934203D07B68234A9342BB
:1018380008D1FB6823F44073FB603B68DB68FA68F7
:101848001343FB60FB6823F080023B685B6913432A
:10185800FB607B68FA681A603B689A687B68DA62A2
:101868003B681A687B689A627B680A4A934203D08D
:101878007B680C4A934203D13B681A697B681A63F8
:101888007B6801225A6100BF1437BD465DF8047BAE
:10189800704700BF000001400004004000080040FD
:1018A800000C004000040140004001400044014099
:1018B8000048014000180040001C00400020004083
:1018C80080B487B000AF786039607B681B6A23F00A
:1018D80001027B681A627B681B6A7B617B685B68B4
:1018E8003B617B689B69FB60FB6823F07003FB60CE
:1018F800FB6823F00303FB603B681B68FA6813432B
:10190800FB607B6923F002037B613B689B687A6913
:1019180013437B617B68204A934203D07B681F4A4C
:1019280093420CD17B6923F008037B613B68DB6839
:101938007A6913437B617B6923F004037B617B68CD
:10194800154A934203D07B68144A934211D13B69EC
:1019580023F480733B613B6923F400733B613B686C
:101968005B693A6913433B613B689B693A69134376
:101978003B617B683A695A607B68FA689A613B68A0
:101988005A687B685A637B687A691A6200BF1C3799
:10199800BD465DF8047B704700000140000401402B
:1019A80080B487B000AF786039607B681B6A23F029
:1019B80010027B681A627B681B6A7B617B685B68C4
:1019C8003B617B689B69FB60FB6823F4E043FB6039
:1019D800FB6823F44073FB603B681B681B02FA68D2
:1019E8001343FB607B6923F020037B613B689B68A2
:1019F8001B017A6913437B617B68224A934203D0B7
:101A08007B68214A93420DD17B6923F080037B6177
:101A18003B68DB681B017A6913437B617B6923F0B0
:101A280040037B617B68174A934203D07B68164A60
:101A3800934213D13B6923F480633B613B6923F4F0
:101A480000633B613B685B699B003A6913433B61F8
:101A58003B689B699B003A6913433B617B683A6921
:101A68005A607B68FA689A613B685A687B689A632F
:101A78007B687A691A6200BF1C37BD465DF8047B33
:101A8800704700BF000001400004014080B487B0E7
:101A980000AF786039607B681B6A23F480727B68CA
:101AA8001A627B681B6A7B617B685B683B617B6849
:101AB800DB69FB60FB6823F07003FB60FB6823F0C5
:101AC8000303FB603B681B68FA681343FB607B6990
:101AD80023F400737B613B689B681B027A6913439C
:101AE8007B617B68214A934203D07B68204A9342FA
:101AF8000DD17B6923F400637B613B68DB681B02C3
:101B08007A6913437B617B6923F480637B617B681B
:101B1800164A934203D07B68154A934213D13B6916
:101B280023F480533B613B6923F400533B613B68DA
:101B38005B691B013A6913433B613B689B691B0165
:101B48003A6913433B617B683A695A607B68FA6873
:101B5800DA613B685A687B68DA637B687A691A627B
:101B680000BF1C37BD465DF8047B7047000001408C
:101B78000004014080B487B000AF786039607B68AA
:101B88001B6A23F480527B681A627B681B6A3B617C
:101B98007B685B687B617B68DB69FB60FB6823F4BF
:101BA800E043FB60FB6823F44073FB603B681B6801
:101BB8001B02FA681343FB603B6923F400533B6143
:101BC8003B689B681B033A6913433B617B68124A75
:101BD800934203D07B68114A934209D17B6923F46D
:101BE80080437B613B685B699B017A6913437B6136
:101BF8007B687A695A607B68FA68DA613B685A6878
:101C08007B681A647B683A691A6200BF1C37BD4654
:101C18005DF8047B704700BF0000014000040140EC
:101C280080B487B000AFF860B9607A60FB681B6A5F
:101C38007B61FB681B6A23F00102FB681A62FB6880
:101C48009B693B613B6923F0F0033B617B681B01A7
:101C58003A6913433B617B6923F00A037B617A6924
:101C6800BB6813437B61FB683A699A61FB687A69D0
:101C78001A6200BF1C37BD465DF8047B704780B40C
:101C880087B000AFF860B9607A60FB681B6A23F020
:101C98001002FB681A62FB689B697B61FB681B6A20
:101CA8003B617B6923F470437B617B681B037A6922
:101CB80013437B613B6923F0A0033B61BB681B01B5
:101CC8003A6913433B61FB687A699A61FB683A6930
:101CD8001A6200BF1C37BD465DF8047B704780B4AC
:101CE80085B000AF786039607B689B68FB60FB68F3
:101CF80023F07003FB603A68FB68134343F0070363
:101D0800FB607B68FA689A6000BF1437BD465DF8CF
:101D1800047B704780B487B000AFF860B9607A6020
:101D28003B60FB689B687B617B6923F47F437B6135
:101D38003B681A027B681A43BB6813437A691343EA
:101D48007B61FB687A699A6000BF1C37BD465DF805
:101D5800047B704780B485B000AF786039607B68D9
:101D680093F83C30012B01D102235AE07B68012211
:101D780083F83C207B68022283F83D207B681B683F
:101D88005B68FB607B681B689B68BB60FB6823F033
:101D98007003FB603B681B68FA681343FB607B6851
:101DA8001B68FA685A607B681B68214A934222D0F4
:101DB8007B681B68B3F1804F1DD07B681B681D4A88
:101DC800934218D07B681B681B4A934213D07B68E8
:101DD8001B681A4A93420ED07B681B68184A9342C4
:101DE80009D07B681B68174A934204D07B681B683C
:101DF800154A93420CD1BB6823F08003BB603B6853
:101E08005B68BA681343BB607B681B68BA689A60F2
:101E18007B68012283F83D207B68002283F83C2000
:101E2800002318461437BD465DF8047B704700BF91
:101E3800000001400004004000080040000C004081
:101E480000040140004001400018004080B500AF88
:101E5800FEF73EFB00F008F800F010F900F062F819
:101E680000F096F8FEE7000080B594B000AF07F1E7
:101E7800200330220021184600F0A0FA07F10C03D5
:101E880000221A605A609A60DA601A610023BB6007
:101E9800224A224B1B6C43F0805313641F4B1B6C6C
:101EA80003F08053BB60BB6800237B601C4A1C4B5B
:101EB8001B6843F480431360194B1B6803F4804389
:101EC8007B607B6802233B620123FB6210233B6338
:101ED8000023BB6307F120031846FEF703FE034601
:101EE800002B01D000F00CF90F23FB6000233B61AD
:101EF80000237B610023BB610023FB6107F10C0316
:101F080000211846FFF75EF80346002B01D000F0C9
:101F1800F7F800BF5037BD4680BD00BF003802400B
:101F28000070004080B500AF174B184A1A60164B76
:101F38004FF482725A60144B00229A60124B0022AE
:101F4800DA60114B00221A610F4B00225A610E4BC6
:101F58004FF400729A610C4B0022DA610A4B00229E
:101F68001A62094B00225A62074B00229A62064BFA
:101F78000A22DA620448FFF7C1F90346002B01D0B0
:101F880000F0BEF800BF80BD6C00002000300140AA
:101F980080B58EB000AF07F1280300221A605A609E
:101FA8009A60DA6007F1200300221A605A603B1D2C
:101FB80000221A605A609A60DA601A615A619A615E
:101FC8002C4B2D4A1A602B4B00225A60294B0022B9
:101FD8009A60284B4FF6FF72DA60264B00221A618E
:101FE800244B00229A612348FFF7EBF90346002BA4
:101FF80001D000F085F84FF48053BB6207F1280345
:1020080019461C48FFF704FB0346002B01D000F0DB
:1020180077F81848FFF700FA0346002B01D000F0C4
:102028006FF800233B6200237B6207F12003194607
:102038001048FFF78FFE0346002B01D000F060F830
:1020480060237B600023BB600023FB6000237B616F
:102058003B1D042219460748FFF714FA0346002BD4
:1020680001D000F04DF8034800F0E0F800BF383721
:10207800BD4680BD2C0000200004004080B588B01B
:1020880000AF07F10C0300221A605A609A60DA6008
:102098001A610023BB60184A174B1B6B43F00103FE
:1020A8001363154B1B6B03F00103BB60BB68002374
:1020B8007B60114A104B1B6B43F0040313630E4BF8
:1020C8001B6B03F004037B607B68002210210B4824
:1020D800FEF7EEFC1023FB6001233B6100237B61CC
:1020E8000023BB6107F10C0319460448FEF746FBC1
:1020F80000BF2037BD4680BD0038024000080240BE
:1021080080B400AF72B6FEE780B483B000AF00239E
:102118007B60104A0F4B5B6C43F4804353640D4B58
:102128005B6C03F480437B607B6800233B60094A57
:10213800084B1B6C43F080531364064B1B6C03F075
:1021480080533B603B6800BF0C37BD465DF8047B9D
:10215800704700BF0038024080B58AB000AF786091
:1021680007F1140300221A605A609A60DA601A6153
:102178007B681B68194A93422BD100233B61184A9C
:10218800174B5B6C43F480535364154B5B6C03F43F
:1021980080533B613B690023FB60114A104B1B6B6A
:1021A80043F0010313630E4B1B6B03F00103FB6049
:1021B800FB68E0237B610223BB610023FB610323EF
:1021C8003B6205237B6207F1140319460548FEF7B5
:1021D800D5FA00BF2837BD4680BD00BF003001409A
:1021E800003802400000024080B485B000AF78603B
:1021F8007B681B680B4A93420DD10023FB600A4A97
:10220800094B1B6C43F002031364074B1B6C03F070
:102218000203FB60FB6800BF1437BD465DF8047B12
:10222800704700BF000400400038024080B588B005
:1022380000AF786007F10C0300221A605A609A60B8
:10224800DA601A617B681B68124A93421DD1002329
:10225800BB60114A104B1B6B43F0040313630E4B16
:102268001B6B03F00403BB60BB688023FB60022385
:102278003B6100237B610023BB610223FB6107F103
:102288000C0319460548FEF779FA00BF2037BD460A
:1022980080BD00BF00040040003802400008024032
:1022A80080B400AFFEE780B400AFFEE780B400AFB3
:1022B800FEE780B400AFFEE780B400AFFEE780B46D
:1022C80000AF00BFBD465DF8047B704780B400AF27
:1022D80000BFBD465DF8047B704780B400AF00BF07
:1022E800BD465DF8047B704780B500AFFEF742F944
:1022F80000BF80BD80B400AF084A084BD3F88830CF
:1023080043F47003C2F88830044B4FF000629A60BF
:1023180000BFBD465DF8047B704700BF00ED00E0DC
:10232800DFF834D0002103E00C4B5B5843500431F4
:102338000B480C4B42189A42F6D30B4A02E0002392
:1023480042F8043B094B9A42F9D3FFF7D3FF00F058
:1023580011F8FFF77BFD7047000002200C240008ED
:10236800000000200C0000200C000020C400002009
:10237800FEE7000070B50D4E0D4CA41BA4100025FF
:10238800A54209D10B4E0C4C00F020F8A41BA41058
:102398000025A54205D170BD56F82530984701356E
:1023A800EEE756F8253098470135F2E7042400088F
:1023B80004240008042400080824000802440346F2
:1023C800934200D1704703F8011BF9E7F8B500BF45
:1023D800F8BC08BC9E467047F8B500BFF8BC08BCFE
:0423E8009E46704756
:1023EC0000000000000000000102030406070809B9
:0823FC00FCDDFF7F0100000081
:04240400AD0100081E
:04240800890100083E
:0C240C0010000000010000000024F4009B
:0400000508002329A3
:00000001FF
